:100000000C946C000C9494000C9494000C94940048
:100010000C9494000C9494000C9494000C94940010
:100020000C9494000C9494000C9494000C94940000
:100030000C9494000C9494000C9494000C949400F0
:100040000C94BE0B0C9494000C94940E0C94C60E5D
:100050000C9494000C9494000C9494000C949400D0
:100060000C94910A0C9494002E0020200020003063
:10007000002000300030780000000008000201007D
:100080000003040700000000000000000102040853
:1000900010204080010204081020010204081020F2
:1000A000040404040404040402020202020203031E
:1000B00003030303000000002300260029000000C2
:1000C0000000250028002B0000000000240027006D
:1000D0002A00BA02A709F60E11241FBECFEFD8E0FE
:1000E000DEBFCDBF12E0A0E0B1E0ECE9F9E202C072
:1000F00005900D92A23EB107D9F724E0A2EEB2E03E
:1001000001C01D92A73AB207E1F710E0C8EDD0E0B8
:1001100004C02297FE010E944212C23DD107C9F7D6
:100120000E943A0F0C94CC140C940000CF92DF92F2
:10013000EF92FF9226E040E052EC61E070E086E052
:1001400094E00E94320E6CE372E086E094E00E943C
:10015000D70F68E171E086E094E00E94D70F6CE36E
:1001600072E086E094E00E94D70F82EE92E00E9457
:100170005A0682EE92E00E94AA066B017C0161158C
:1001800071058105910539F469E371E086E094E039
:100190000E94B80FFFCF6FE871E086E094E00E9404
:1001A000B80F4F2D55276627772720E130E086E0EE
:1001B00094E00E94A8106EE971E086E094E00E944D
:1001C000B80F4E2D50E060E070E02AE030E086E0AD
:1001D00094E00E9494106EE286E094E00E94BA0FD0
:1001E0004D2D50E060E070E02AE030E086E094E0E1
:1001F0000E94A81082EE92E00E94F2066DEA71E081
:1002000086E094E0FF90EF90DF90CF900C94D70FB2
:10021000CF93DF93CDB7DEB7A0970FB6F894DEBFCC
:100220000FBECDBFAE014F5F5F4F682F82EE92E0F1
:100230000E940E08882359F044E050E060E070E02E
:10024000CE0101960E94670365ED72E002C06FEC7B
:1002500071E086E094E00E94D70FA0960FB6F89464
:10026000DEBF0FBECDBFDF91CF910895DF92EF9239
:10027000FF920F931F93CF93DF93CDB7DEB76C97A9
:100280000FB6F894DEBF0FBECDBF182F65ED72E03C
:10029000CE0147960E94281184E0189F7001112416
:1002A000D12EDD0CDD0C00E010E04AE0B8016E0D4F
:1002B0007F1DCE0141960E949811BE016F5E7F4F57
:1002C000CE0147960E947411CE0141960E94BA1049
:1002D000AE014F5F5F4F6D2D600F82EE92E00E9486
:1002E000D907882319F161EF71E0CE0141960E9490
:1002F0002811BE01695E7F4FCE0141960E94F01128
:1003000060E772E00E940312BC0186E094E00E9464
:10031000AA0FCE0141960E94BA1040E150E060E081
:1003200070E0CE0101960E94670316C069EF71E08C
:10033000CE0141960E942811BE01695E7F4FCE0119
:1003400041960E94F011BC0186E094E00E94C50F26
:10035000CE0141960E94BA100F5F1F4F0430110565
:1003600009F0A3CFCE0147960E94BA106C960FB643
:10037000F894DEBF0FBECDBFDF91CF911F910F91DB
:10038000FF90EF90DF9008954F925F926F927F926F
:100390008F929F92AF92BF92CF92DF92EF920F9384
:1003A0001F93CF93DF93CDB7DEB7A6970FB6F89420
:1003B000DEBF0FBECDBFCE0101964C0187E0F40138
:1003C00011928A95E9F700E010E09E012A5D3F4F07
:1003D000A40160E082EE92E00E942207882309F4E3
:1003E000B3C06FE072E086E094E00E94D70F6DE545
:1003F00072E086E094E00E94B80F4EA150E060E009
:1004000070E0C4010E9400036FE072E086E094E0B7
:100410000E94D70F8EA1843009F086C086E0E2E109
:10042000F1E0DE01909601900D928A95E1F7412C62
:10043000512C3201A12CB12CCE0180966C01E12C03
:10044000930182014EA1B40182EE92E00E947707EF
:10045000882309F45DC0B2016D5F7F4F4AE0CE0191
:1004600008960E9498114AE0B201CE010E960E94B1
:1004700098114AE0B501CE014A960E94981163E7AF
:1004800072E0CE0144960E942811BE01665E7F4F45
:10049000CE0144960E94F0116BE772E00E940312B5
:1004A000BE01625F7F4F0E94F0116CEC71E00E9410
:1004B0000312BE01685F7F4F0E94F01165E872E091
:1004C0000E940312BC0186E094E00E94C50FCE0199
:1004D00044960E94BA10CE014A960E94BA10CE01EC
:1004E0000E960E94BA10CE0108960E94BA108A2D6C
:1004F0000E9436019FEFA91AB90AE4E04E0E511C82
:10050000611C711CF0E1AF16B10409F095CF06C073
:1005100066E972E086E094E00E94D70F68EB7BE02A
:1005200080E090E00E942B0C8EA1873069F410E0EF
:10053000812F0E9408011F5F1034D1F768EB7BE028
:1005400080E090E00E942B0CA6960FB6F894DEBFD8
:100550000FBECDBFDF91CF911F910F91EF90DF9034
:10056000CF90BF90AF909F908F907F906F905F9053
:100570004F90089543E062E082EE92E00C94EB022B
:1005800020913B03222399F03FB7F89420913B033D
:10059000213059F42DB3209339034DB320913A0300
:1005A000209524232DBB3FBF02C0309339038CBD5F
:1005B0009DBD089580913B03882361F09FB7F89417
:1005C00020913B0380913903213019F48DBB9FBFEB
:1005D00008958FBF0895CF93DF93EC01862F188283
:1005E00019821A821B826C834D831D8A1E8A60E0E9
:1005F0000E94B70C61E08D81DF91CF910C94B70C14
:100600004F925F926F927F928F929F92AF92BF9222
:10061000CF92DF92EF92FF920F931F93CF93DF93CE
:100620004A015B01EC01C12CD12C76012A013B016E
:1006300081E0481A510861087108C814D904EA0415
:10064000FB0489F165E770E086E094E00E94870F83
:100650008E018881803130F463E770E086E094E0B9
:100660000E94870F2196F801608170E040E150E020
:1006700086E094E00E948C10F2E08F169104A104B1
:10068000B10458F0C414D504E604F70431F061E76E
:1006900070E086E094E00E94870F8FEFC81AD80AB6
:1006A000E80AF80ACACF86E094E0DF91CF911F9163
:1006B0000F91FF90EF90DF90CF90BF90AF909F9001
:1006C0008F907F906F905F904F900C94C10F2F92FE
:1006D0003F924F925F926F927F928F929F92AF92D2
:1006E000BF92CF92DF92EF92FF920F931F93CF931F
:1006F000DF931C016A017B01C82FD32D812C912C23
:1007000054012A013B01F1E04F1A510861087108B8
:100710008C149D04AE04BF0451F18E018881803198
:1007200030F46FE670E086E094E00E94870F219637
:1007300040E150E0F801608186E094E00E94A11061
:10074000F2E0CF16D104E104F10458F084149504CA
:10075000A604B70431F06DE670E086E094E00E94F4
:10076000870F8FEF881A980AA80AB80AD1CF6AE6CD
:1007700070E086E094E00E94870FE101812C912CCB
:1007800054018C149D04AE04BF04A1F06991603241
:1007900038F468E670E086E094E00E94870F04C0B9
:1007A00086E094E00E94BA0FEFEF8E1A9E0AAE0A1E
:1007B000BE0AE7CF86E094E0DF91CF911F910F91C1
:1007C000FF90EF90DF90CF90BF90AF909F908F9071
:1007D0007F906F905F904F903F902F900C94C10F3F
:1007E000EF92FF920F931F93CF93DF93EC01E62ECE
:1007F0008E89882339F06EBD00000DB407FEFDCF51
:100800008EB523C061E089810E94F00C00E010E009
:10081000F12C60E089810E94F00CC701002E02C01B
:10082000959587950A94E2F780FF02C061E001C0C8
:1008300060E08A810E94F00C61E089810E94F00CE6
:100840000F5F1F4F0830110521F7DF91CF911F91E6
:100850000F91FF90EF900895DF92EF92FF920F9328
:100860001F93CF93DF93EC018E89882339F01EBC50
:1008700000000DB407FEFDCFDEB423C061E0898126
:100880000E94F00C00E010E0D12CEE24E394F12C57
:100890008B810E94260D892B39F09701002E01C013
:1008A000220F0A94EAF7D22A60E089810E94F00CB4
:1008B00061E089810E94F00C0F5F1F4F0830110525
:1008C00039F78D2DDF91CF911F910F91FF90EF9010
:1008D000DF9008951F93CF93DF93EC018D898823D8
:1008E00029F18E89882321F081E790E00E94C002DF
:1008F00060E088810E94F00C62E070E080E090E0AF
:100900000E942B0C62E0CE010E94F003CE010E94F7
:100910002C04182F61E088810E94F00C8E898111CF
:100920000E94DA0291E0113031F406C08C810E94FD
:10093000260D91E0811190E0892FDF91CF911F91D9
:100940000895DF92EF92FF920F931F93CF93DF935F
:100950007C018B01C0E0D0E0C7010E946A04D82E60
:10096000811115C00115110559F02A960C171D07A4
:1009700038F46AEA72E086E094E00E94D70F07C07C
:100980006AE070E080E090E00E942B0CE5CF8D2DB6
:10099000DF91CF911F910F91FF90EF90DF9008951D
:1009A000CF92DF92EF92FF920F931F93CF93DF933B
:1009B000EC01F62ED72EE42E8D898823D1F18E8975
:1009C000882321F081E790E00E94C00260E08881E6
:1009D0000E94F00C62E070E080E090E00E942B0C3E
:1009E00063E0CE010E94F003CF2C0F2D1D2D802F30
:1009F0008C198E1568F461E070E080E090E00E9450
:100A00002B0CCE010E942C04F80181938F01EFCFB3
:100A100061E088810E94F00C8E89882371F1DF915A
:100A2000CF911F910F91FF90EF90DF90CF900C949A
:100A3000DA0262E070E080E090E00E942B0C42E07D
:100A40004E0D64E28DE393E00E94A1098DE393E0F3
:100A50000E9488081F2DCF2DDD2D8C2F811B8E1518
:100A600060F461E070E080E090E00E942B0C8DE388
:100A700093E00E9488088993F0CFDF91CF911F9176
:100A80000F91FF90EF90DF90CF900895CF93DF9379
:100A900000D000D000D0CDB7DEB746E0BE016F5F1A
:100AA0007F4F0E94D00446E050E06CE071E0CE0140
:100AB00001960E94471421E0892B09F020E0822F43
:100AC00026960FB6F894DEBF0FBECDBFDF91CF9153
:100AD0000895682F8DE393E00C94D808AF92BF92ED
:100AE000CF92DF92EF92FF920F931F93CF93DF93FA
:100AF000EC017B01042F8D890F5F882309F462C00C
:100B00008E89882321F081E790E00E94C00260E096
:100B100088810E94F00C62E070E080E090E00E942A
:100B20002B0C61E0CE010E94F00360E0CE010E9438
:100B3000F00360E0CE010E94F0036FEFCE010E944F
:100B4000F003602FCE010E94F003602F6195CE016B
:100B50000E94F00364EDCE010E94F003A12C23ED6E
:100B6000B22E10E001501109CA2CD12CC016D106AA
:100B700064F4CE0CDF1CF6016081CE010E94F0030C
:100B8000F6018081B80EA394EFCF6B2D6095CE0156
:100B90000E94F00360E0CE010E94F00361E08881D2
:100BA0000E94F00C8E89882309F454C0DF91CF9104
:100BB0001F910F91FF90EF90DF90CF90BF90AF907B
:100BC0000C94DA0262E070E080E090E00E942B0C6E
:100BD00064E270E08DE393E00E942B0980E00E94C4
:100BE000690580E00E9469058FEF0E946905802FEA
:100BF0000E946905802F81950E94690584ED0E94FD
:100C00006905C12C93EDD92E10E001501109CC2DAE
:100C1000D0E0C017D1074CF4CE0DDF1D88810E94B3
:100C200069058881D80EC394F2CF8D2D80950E94DE
:100C3000690580E00E9469058DE393E0DF91CF9123
:100C40001F910F91FF90EF90DF90CF90BF90AF90EA
:100C50000C94A409DF91CF911F910F91FF90EF9019
:100C6000DF90CF90BF90AF9008950F931F93CF93D5
:100C7000DF93EC0189010E946E05B801CE010E944C
:100C8000A104811102C080E010C0CE010E9446057F
:100C90008823C9F39D89992341F0B801CE01DF91E2
:100CA000CF911F910F910C94A104DF91CF911F91CF
:100CB0000F910895CF93DF93EC018D89882349F13B
:100CC0008E89882331F00E944A0881E790E00E94D3
:100CD000C00260E088810E94F00C68EE73E080E062
:100CE00090E00E942B0C82E08093F90228EE33E022
:100CF00041E069EF72E0CE010E94350661E0888133
:100D00000E94F00C8E89882311F1DF91CF910C9411
:100D1000DA028DE393E00E94170961E08D810E9461
:100D2000F00C60E08D810E94F00C60E971E080E0E1
:100D300090E00E942B0C61E08D810E94F00C6AE033
:100D400070E080E090E0DF91CF910C942B0CDF916C
:100D5000CF910895CF93DF93EC0182E08093F90265
:100D600028EE33E041E069EF72E0CE010E943506E3
:100D7000811104C060E070E0CB0131C04CE069EF4C
:100D800072E0CE010E94D00446E050E066E071E0DF
:100D900089EF92E00E944714892B61F78D8988239F
:100DA00019F0E6E0F0E002C0E7E0F0E0E750FD4FC8
:100DB0006081862F90E0A0E0B0E0BA2FA92F982F95
:100DC00088272181822BBA2FA92F982F882722814B
:100DD000822B6627782F892F9A2F2381622BDF9110
:100DE000CF910895CF93DF93EC0194E19093F902B2
:100DF00081E08093FA029093FB028093FC0228EE3C
:100E000033E044E069EF72E0CE010E9435068823AA
:100E1000B1F048E069EF72E0CE010E94D0048D8904
:100E2000882319F085E090E002C086E090E0FC01A4
:100E3000E750FD4F81E09081953109F080E0DF912E
:100E4000CF910895BF92CF92DF92EF92FF920F93CE
:100E50001F93CF93DF93EC017A0169018AE48093B9
:100E6000F90281E08093FA026093FB02980143E06B
:100E700069EF72E0CE010E943506B82E811102C0E2
:100E8000B12C2AC08D89882381F044E169EF72E09A
:100E9000CE010E94D00480910003813089F78091B7
:100EA0000503F601808390E007C0B801CE010E94DF
:100EB000A1048111EACFE4CF80910503981760F473
:100EC000292F30E0F901E750FD4F8585F701E20F4A
:100ED000F31F80839F5FF0CF8B2DDF91CF911F9108
:100EE0000F91FF90EF90DF90CF90BF900895AF9259
:100EF000BF92CF92DF92EF920F931F93CF93DF9326
:100F0000EC01142F5C018EE0A80EB11C86E0F60106
:100F1000D50101900D928A95E1F750E0CE01069639
:100F20000E9437141D8780E48093F90281E080934A
:100F3000FA02EE2011F081E601C080E68093FB0208
:100F40000093FC0286E0F501ADEFB2E001900D9256
:100F50008A95E1F720E04D85241760F4822F90E018
:100F6000FE01E80FF91F3681FC01E750FD4F328783
:100F70002F5FF1CF465F28EE33E069EF72E0CE01DC
:100F80000E943506882351F04CE069EF72E0CE01F3
:100F90000E94D00481E090910003911180E0DF91E4
:100FA000CF911F910F91EF90DF90CF90BF90AF90B6
:100FB00008950F931F93CF93DF93EC018A0180E490
:100FC0008093F90281E08093FA0280E38093FB0230
:100FD0006093FC0228EE33E044E069EF72E0CE015A
:100FE0000E943506811102C080E013C04AE169EF1A
:100FF00072E0CE010E94D004809100038111F4CFF1
:1010000080E1E1E0F3E0D80101900D928A95E1F7EB
:1010100081E0DF91CF911F910F9108950F931F935E
:10102000CF93DF93EC018A01603410F080E02DC093
:1010300080E48093F90281E08093FA0280E3809358
:10104000FB026093FC0228EE33E044E069EF72E0BB
:10105000CE010E943506882349F34AE169EF72E028
:10106000CE010E94D004809100038111DFCF8091D6
:10107000010390910203A0910303B0910403F801CE
:1010800080839183A283B38381E0DF91CF911F910D
:101090000F910895CF93CFB7F89480913C038111BD
:1010A00027C0EAEAF0E08491E6E9F0E09491E82FC5
:1010B000F0E0EE0FFF1FE853FF4FA591B4918C9124
:1010C000892321F461E08AE00E94F00C61E08AE06B
:1010D0000E94B70C8CB580618CBD8CB580648CBDD2
:1010E00061E08DE00E94B70C61E08BE00E94B70CDC
:1010F00080913C038F5F80933C03CFBFCF910895D5
:1011000080916D0390E020916E03821B91090895F8
:1011100020916E0380916D03281750F4E22FF0E0C8
:10112000E159FC4F808190E02F5F20936E0308957A
:101130008FEF9FEF0895E0916E0380916D03E817A4
:1011400030F4F0E0E159FC4F808190E008958FEF9A
:101150009FEF08950895CF92DF92EF92FF920F9341
:101160001F93CF93DF937C01CB018A012091490328
:10117000222389F0EB016B01C40ED51ECC15DD05D1
:1011800069F06991D701ED91FC910190F081E02D1A
:10119000C7010995F3CF642F0E94680AC801DF9147
:1011A000CF911F910F91FF90EF90DF90CF90089516
:1011B000CF93DF931F92CDB7DEB7698320914903A8
:1011C0002223D1F020914A03203240F021E030E088
:1011D000FC013383228380E090E015C080914B03B3
:1011E000E82FF0E0E45BFC4F998190838F5F809360
:1011F0004B0380934A0305C061E0CE0101960E9433
:10120000680A81E090E00F90DF91CF910895FC0192
:101210001382128248EE53E060E070E0448355830D
:101220006683778387EB92E09183808308951092A1
:101230006E0310926D0310924B0310924A030C94AC
:10124000AB0981E08093490360936C0310924B03D8
:1012500010924A0308950C9421090F93062F21E060
:1012600040914A036CE473E080916C030E94110A80
:1012700010924B0310924A03109249030F91089564
:101280008F929F92AF92BF92CF92DF92EF92FF9296
:101290000F931F93CF93DF93EC01F62ED42E4801CA
:1012A0005901EE2019F10E9421091E2D143008F079
:1012B00013E01150B8F0E881F98128E0129FB001E5
:1012C0001124A501940104C056954795379527959B
:1012D0006A95D2F7CA01B9010190F081E02DCE01E3
:1012E0000995E7CF60E0CE010E942D094D2D4132D6
:1012F00008F040E22C2D6FE673E08F2D0E94C909A3
:1013000010926E0380936D03DF91CF911F910F9127
:10131000FF90EF90DF90CF90BF90AF909F908F9015
:101320000895CF92EF920F931F93C22EE12C00E00D
:1013300010E098010E9440091F910F91EF90CF900B
:10134000089521E00C94910961E00C942D098DE33E
:1013500093E00C9407091092FC0381E08093FA0358
:101360001092F90361E082E10E94F00C61E083E1F8
:101370000E94F00CE9EBF0E080818E7F8083808119
:101380008D7F808388E48093B80085E48093BC00DF
:101390000895413208F043C09091FC039111FCCFB5
:1013A00091E09093FC032093FA032FEF20938F0397
:1013B0001092D403240F2093D3039093FB039091B6
:1013C000FB03880F892B8093FB038091F903813005
:1013D00061F41092F9038091FB038093BB0080912C
:1013E000BC0083FDF8CF85EC01C085EE8093BC0086
:1013F0008091FC038130E1F38091D403841710F4D1
:101400004091D40325ED33E0FB01D9018A2F821BE3
:10141000841718F48D918193F9CF842F089580E07B
:1014200008950F93413208F04AC09091FC03911146
:10143000FCCF92E09093FC030093FA039FEF90930C
:101440008F031092D4034093D303FB0165ED73E047
:10145000DB019A2F961B941718F491919D93F9CF65
:101460001092FB039091FB03880F892B8093FB0361
:101470008091F903813061F41092F9038091FB03AC
:101480008093BB008091BC0083FDF8CF85EC01C048
:1014900085EE8093BC00222321F08091FC038230F2
:1014A000E1F380918F038F3F61F080918F03803251
:1014B00051F080918F03803341F483E007C081E0D5
:1014C00005C080E003C082E001C084E00F91089570
:1014D000613298F42091FC03243089F46093B103C5
:1014E000FC0183EB93E0DC012A2F281B261718F45C
:1014F00021912D93F9CF80E0089581E0089582E055
:10150000089585ED8093BC008091BC0084FDFCCFE4
:101510001092FC03089585EC8093BC001092FC03AC
:1015200008951F920F920FB60F9211242F933F939D
:101530004F935F936F937F938F939F93AF93BF93DB
:10154000EF93FF938091B900887F803609F49EC0A5
:1015500078F5883209F45DC090F4803109F456C002
:1015600038F4882309F4F5C0883009F44FC0F5C079
:10157000883109F44EC0803209F45FC0EEC0803477
:1015800009F46AC058F4803309F457C0883309F06D
:10159000E4C080938F030E948B0ADFC0803509F47A
:1015A0004FC0883509F45DC0883409F0D6C0D3C077
:1015B000883909F4C4C0A8F4883709F467C038F43E
:1015C000883609F463C0803709F460C0C6C0883823
:1015D00009F4B5C0803909F45FC0803809F0BDC096
:1015E0005BC0803B09F483C038F4803A09F466C0DC
:1015F000883A09F47CC0B1C0803C09F4A4C0883C9E
:1016000009F4A1C0883B09F487C0A7C08091FB03FF
:1016100010C09091D4038091D303981770F5E09196
:10162000D40381E08E0F8093D403F0E0EB52FC4FA3
:1016300080818093BB0085EC83C080938F038BC037
:10164000E091D40381E08E0F8093D4038091BB009E
:10165000F0E0EB52FC4F80839091D4038091D30350
:101660006BC0E091D40381E08E0F8093D40380910E
:10167000BB00F0E0EB52FC4F80838091FA038111B4
:101680006AC081E08093F90384EA5EC083E08093BE
:10169000FC0310929003CFCF80919003803208F02A
:1016A0004EC0E091900381E08E0F80939003809173
:1016B000BB00F0E0EF56FC4F8083BDCF0E948B0A49
:1016C00080919003803230F4E0919003F0E0EF5687
:1016D000FC4F10826091900370E0E091F503F0916F
:1016E000F60381E993E009951092900336C084E0F7
:1016F0008093FC031092B2031092B103E091F703C0
:10170000F091F80309958091B103811105C081E042
:101710008093B1031092B303E091B20381E08E0F86
:101720008093B203F0E0ED54FC4F80818093BB00C6
:101730009091B2038091B103981708F47CCF85E8AB
:101740008093BC000AC085EC8093BC001092FC031F
:1017500004C010928F030E94810AFF91EF91BF9104
:10176000AF919F918F917F916F915F914F913F9139
:101770002F910F900FBE0F901F9018951F920F92F0
:101780000FB60F9211242F933F938F939F93AF9394
:10179000BF938091FE039091FF03A0910004B0914C
:1017A00001043091FD0323E0230F2D3720F401962F
:1017B000A11DB11D05C026E8230F0296A11DB11D74
:1017C0002093FD038093FE039093FF03A0930004F6
:1017D000B09301048091020490910304A091040449
:1017E000B09105040196A11DB11D80930204909350
:1017F0000304A0930404B0930504BF91AF919F919B
:101800008F913F912F910F900FBE0F901F901895C1
:101810003FB7F8948091020490910304A0910404CE
:10182000B091050426B5A89B05C02F3F19F001967D
:10183000A11DB11D3FBF6627782F892F9A2F620FF8
:10184000711D811D911D42E0660F771F881F991F32
:101850004A95D1F70895CF92DF92EF92FF92CF93FE
:10186000DF936B017C010E94080CEB01C114D104D1
:10187000E104F10489F00E941D120E94080C6C1B07
:101880007D0B683E734090F381E0C81AD108E108EF
:10189000F108C851DC4FEACFDF91CF91FF90EF9074
:1018A000DF90CF900895789484B5826084BD84B52C
:1018B000816084BD85B5826085BD85B5816085BD4B
:1018C000EEE6F0E0808181608083E1E8F0E0108264
:1018D000808182608083808181608083E0E8F0E0A5
:1018E000808181608083E1EBF0E08081846080838F
:1018F000E0EBF0E0808181608083EAE7F0E08081C6
:101900008460808380818260808380818160808325
:101910008081806880831092C1000895833081F0B7
:1019200028F4813099F08230A1F008958730A9F031
:101930008830B9F08430D1F4809180008F7D03C06D
:10194000809180008F7780938000089584B58F7791
:1019500002C084B58F7D84BD08958091B0008F77DB
:1019600003C08091B0008F7D8093B0000895CF9325
:10197000DF9390E0FC01E457FF4F2491FC01E05617
:10198000FF4F8491882349F190E0880F991FFC0153
:10199000E853FF4FA591B49182549F4FFC01C5912C
:1019A000D4919FB7611108C0F8948C91209582233F
:1019B0008C93888182230AC0623051F4F8948C9110
:1019C000322F309583238C938881822B888304C0A7
:1019D000F8948C91822B8C939FBFDF91CF910895C7
:1019E0000F931F93CF93DF931F92CDB7DEB7282FAE
:1019F00030E0F901E858FF4F8491F901E457FF4FB7
:101A00001491F901E056FF4F04910023C9F0882397
:101A100021F069830E948E0C6981E02FF0E0EE0FC7
:101A2000FF1FE254FF4FA591B4919FB7F8948C919A
:101A3000611103C01095812301C0812B8C939FBF3E
:101A40000F90DF91CF911F910F910895CF93DF9366
:101A5000282F30E0F901E858FF4F8491F901E4574D
:101A6000FF4FD491F901E056FF4FC491CC2391F080
:101A700081110E948E0CEC2FF0E0EE0FFF1FEC5452
:101A8000FF4FA591B4912C912D2381E090E021F49A
:101A900080E002C080E090E0DF91CF910895FC01EA
:101AA000818D228D90E0805C9F4F821B91098F7306
:101AB00099270895FC01918D828D981731F0828DC0
:101AC000E80FF11D858D90E008958FEF9FEF089549
:101AD000FC01918D828D981761F0828DDF01A80F36
:101AE000B11D5D968C91928D9F5F9F73928F90E058
:101AF00008958FEF9FEF08958CEE9EE0892B49F0BB
:101B000080E090E0892B29F00E94EC0E81110C946A
:101B100000000895FC01848DDF01A80FB11DA35AB8
:101B2000BF4F2C91848D90E001968F739927848FFD
:101B3000A689B7892C93A089B1898C9180648C93F4
:101B4000938D848D981306C00288F389E02D8081DF
:101B50008F7D80830895CF93DF93EC01888D882358
:101B6000C9F0EA89FB89808185FD05C0A889B9890A
:101B70008C9186FD0FC00FB607FCF5CF808185FFE5
:101B8000F2CFA889B9898C9185FFEDCFCE010E9453
:101B90008A0DE7CFDF91CF910895CF92DF92FF9228
:101BA0000F931F93CF93DF931F92CDB7DEB76C01D6
:101BB00081E0D60158968C9358975B969C915B97E1
:101BC0005C968C915C97981307C05096ED91FC91B0
:101BD0005197808185FD2EC0F601038D10E00F5FC7
:101BE0001F4F0F731127F02EF601848DF81211C0CC
:101BF0000FB607FCF9CFD6015096ED91FC915197A5
:101C0000808185FFF1CFC60169830E948A0D6981B9
:101C1000EBCF838DE80FF11DE35AFF4F6083D601B0
:101C20005B960C935B975296ED91FC915397808154
:101C300080620CC0D6015696ED91FC915797608357
:101C40005096ED91FC91519780818064808381E072
:101C500090E00F90DF91CF911F910F91FF90DF9057
:101C6000CF900895BF92CF92DF92EF92FF92CF93E1
:101C7000DF93EC016A017B01B22EE889F98982E0E9
:101C80008083411581EE580761057105A1F060E080
:101C900079E08DE390E0A70196010E941E12215089
:101CA00031094109510956954795379527952115D1
:101CB00080E1380798F0E889F989108260E874E8D3
:101CC0008EE190E0A70196010E941E122150310979
:101CD000410951095695479537952795EC85FD851E
:101CE0003083EE85FF852083188EEC89FD89B082D4
:101CF000EA89FB89808180618083EA89FB89808110
:101D000088608083EA89FB89808180688083EA8992
:101D1000FB8980818F7D8083DF91CF91FF90EF9051
:101D2000DF90CF90BF9008951F920F920FB60F9241
:101D300011242F938F939F93EF93FF93E0911604B9
:101D4000F09117048081E0911C04F0911D0482FD44
:101D500012C0908180911F048F5F8F7320912004A7
:101D6000821751F0E0911F04F0E0EA5FFB4F958F7E
:101D700080931F0401C08081FF91EF919F918F910B
:101D80002F910F900FBE0F901F9018951F920F92DA
:101D90000FB60F9211242F933F934F935F936F933E
:101DA0007F938F939F93AF93BF93EF93FF9386E0BF
:101DB00094E00E948A0DFF91EF91BF91AF919F91A6
:101DC0008F917F916F915F914F913F912F910F90E4
:101DD0000FBE0F901F90189586E094E00E944F0D63
:101DE00021E0892B09F420E0822F08951092090444
:101DF0001092080488EE93E0A0E0B0E080930A041B
:101E000090930B04A0930C04B0930D0487EC92E024
:101E1000909307048093060485EC90E0909313045C
:101E20008093120484EC90E0909315048093140442
:101E300080EC90E0909317048093160481EC90E07E
:101E4000909319048093180482EC90E090931B0403
:101E500080931A0486EC90E090931D0480931C04F8
:101E600010921F0410922004109221041092220458
:101E7000089508950E94530C0E94390F0E94960005
:101E8000CCE7DDE00E94C4012097E1F30E947C0DC5
:101E9000F9CFCF92DF92EF92FF920F931F93CF93E0
:101EA000DF937C016A01EB0100E010E00C151D05D9
:101EB00071F06991D701ED91FC910190F081E02DD5
:101EC000C7010995892B19F00F5F1F4FEFCFC8018C
:101ED000DF91CF911F910F91FF90EF90DF90CF9006
:101EE00008956115710581F0DB010D900020E9F77F
:101EF000AD0141505109461B570BDC01ED91FC919E
:101F00000280F381E02D099480E090E00895EF9243
:101F1000FF920F931F93CF93DF938C017B01C0E05F
:101F2000D0E0F701EC0FFD1F6491662359F0F80132
:101F3000A081B181ED91FC91C8010995892B11F027
:101F40002196EFCFCE01DF91CF911F910F91FF909E
:101F5000EF900895DC01ED91FC91DB0114964D9119
:101F60005C9115976D917C910280F381E02D09942D
:101F70000C94710FDC01ED91FC910190F081E02D4A
:101F8000099463ED72E00C94710F0F931F93CF933C
:101F9000DF93EC010E94AA0F8C01CE010E94C10FB9
:101FA000800F911FDF91CF911F910F9108950F9393
:101FB0001F93CF93DF93EC010E94710F8C01CE0130
:101FC0000E94C10F800F911FDF91CF911F910F9140
:101FD00008958F929F92AF92BF92CF92DF92EF922D
:101FE000FF920F931F93CF93DF93CDB7DEB7A197E7
:101FF0000FB6F894DEBF0FBECDBF7C01C42EE52F17
:10200000CB01D22E19A221E02D1510F02AE0D22EFC
:102010008E010F5D1F4F8D2C912CA12CB12C6C2D9E
:102020007E2FA50194010E941E128C2DD29E801934
:102030001124015011098A3014F4805D01C0895CBB
:10204000F8018083211531054105510521F0C22E8B
:10205000E32FCA01E4CFB801C7010E94710FA19616
:102060000FB6F894DEBF0FBECDBFDF91CF911F91A9
:102070000F91FF90EF90DF90CF90BF90AF909F9027
:102080008F900895CF92DF92EF92FF920F931F935C
:10209000CF93DF93EC016A017B012115310579F4BF
:1020A000E881F9810190F081E02D642FDF91CF91DB
:1020B0001F910F91FF90EF90DF90CF9009942A30FD
:1020C0003105E9F477FF1AC06DE20E94BA0F8C0166
:1020D00044275527BA014C195D096E097F092AE08A
:1020E000CE010E94E90F800F911FDF91CF911F91C8
:1020F0000F91FF90EF90DF90CF9008952AE0B70105
:10210000A601CE01DF91CF911F910F91FF90EF902B
:10211000DF90CF900C94E90F9A01AB01662757FD31
:102120006095762F0C9442102115310541F4DC01A5
:10213000ED91FC910190F081E02D642F09940C94B5
:10214000E90F9A01462F50E060E070E00C94941083
:102150000F931F93CF93DF93EC010E9494108C0197
:10216000CE010E94C10F800F911FDF91CF911F916F
:102170000F910895FC01808191810C94DE12CF9320
:10218000DF93EC0188819981009711F00E94DE12A3
:10219000198218821D821C821B821A82DF91CF91C4
:1021A00008950F931F93CF93DF93EC018B016F5F23
:1021B0007F4F888199810E946D13009731F0998338
:1021C00088831B830A8381E001C080E0DF91CF9187
:1021D0001F910F910895CF93DF93EC01888199812E
:1021E000892B29F08A819B818617970760F4CE019D
:1021F0000E94D110882341F08C819D81892B19F494
:10220000E881F981108281E0DF91CF910895EF920A
:10221000FF920F931F93CF93DF93EC017B018A0111
:10222000BA010E94EB10811104C0CE010E94BF10C0
:1022300007C01D830C83B701888199810E944014D7
:10224000CE01DF91CF911F910F91FF90EF900895F4
:10225000FC01118210821382128215821482611590
:10226000710559F0FB0101900020E9F7AF014150E1
:102270005109461B570B0C94071108950F931F9398
:10228000CF93DF938C01EB01FC018081918100975A
:1022900099F0428153812C813D814217530750F0C0
:1022A000688179810E9440148C819D81F801958319
:1022B000848313C00E94DE1288819981F801918382
:1022C00080838A819B81938382838C819D81958386
:1022D0008483198218821B821A821D821C82DF91DC
:1022E000CF911F910F910895CF93DF93EC01861743
:1022F000970711F00E943E11CE01DF91CF91089512
:10230000CF93DF93EC016115710561F0FB01019042
:102310000020E9F7AF0141505109461B570B0E94BD
:10232000071102C00E94BF10CE01DF91CF91089526
:102330000F931F93CF93DF93CDB7DEB762970FB69E
:10234000F894DEBF0FBECDBF8C01CB01F801118226
:102350001082138212821582148250E0BE016F5FD8
:102360007F4F0E945514BE016F5F7F4FC8010E94CE
:10237000801162960FB6F894DEBF0FBECDBFDF911D
:10238000CF911F910F910895EF92FF920F931F939A
:10239000CF93DF93EC017B010C811D8161157105E9
:1023A00011F480E016C04115510591F0040F151F7E
:1023B000B8010E94EB108823A1F3288139818C8118
:1023C0009D81B701820F931F0E9440141D830C83CF
:1023D00081E0DF91CF911F910F91FF90EF900895D1
:1023E000CF93DF93EC01FB014481558160817181C2
:1023F0000E94C411811103C0CE010E94BF10CE0102
:10240000DF91CF910895CF93DF93EC0161157105B2
:1024100069F0FB0101900020E9F7AF01415051093B
:10242000461B570B0E94C411811103C0CE010E94AC
:10243000BF10CE01DF91CF9108950895A1E21A2E29
:10244000AA1BBB1BFD010DC0AA1FBB1FEE1FFF1F58
:10245000A217B307E407F50720F0A21BB30BE40BA8
:10246000F50B661F771F881F991F1A9469F76095EF
:102470007095809590959B01AC01BD01CF010895A9
:10248000EE0FFF1F0590F491E02D0994CF93DF9399
:102490008230910510F482E090E0E091A504F09183
:1024A000A60420E030E0A0E0B0E0309739F14081B0
:1024B000518148175907B8F04817590771F48281BC
:1024C0009381109729F013969C938E9312972CC0AA
:1024D0009093A6048093A50427C02115310531F0FF
:1024E0004217530718F0A901DB0101C0EF019A015F
:1024F000BD01DF010280F381E02DD7CF2115310529
:10250000F9F0281B390B2430310580F48A819B8136
:102510006115710521F0FB019383828304C09093C0
:10252000A6048093A504FE01329644C0FE01E20F8A
:10253000F31F8193919322503109398328833AC044
:102540002091A3043091A404232B41F42091020193
:10255000309103013093A4042093A304209100013F
:10256000309101012115310541F42DB73EB740915D
:10257000040150910501241B350BE091A304F09157
:10258000A404E217F307A0F42E1B3F0B281739070A
:1025900078F0AC014E5F5F4F2417350748F04E0FBF
:1025A0005F1F5093A4044093A3048193919302C0AE
:1025B000E0E0F0E0CF01DF91CF910895CF93DF937A
:1025C000009709F487C0FC01329713821282C091F0
:1025D000A504D091A604209781F420813181280F91
:1025E000391F8091A3049091A4048217930779F571
:1025F000F093A404E093A3046DC0DE0120E030E07A
:10260000AE17BF0750F412964D915C9113979D0140
:102610004115510509F1DA01F3CFB383A28340815B
:102620005181840F951F8A179B0771F48D919C919E
:102630001197840F951F02969183808312968D9136
:102640009C911397938382832115310529F4F0938C
:10265000A604E093A5043EC0D9011396FC93EE9323
:1026600012974D915D91A40FB51FEA17FB0779F4FE
:1026700080819181840F951F0296D90111969C93B8
:102680008E938281938113969C938E931297E0E0B0
:10269000F0E08A819B81009719F0FE01EC01F9CFEF
:1026A000CE01029628813981820F931F2091A304C5
:1026B0003091A4042817390769F4309729F410924F
:1026C000A6041092A50402C013821282D093A4041F
:1026D000C093A304DF91CF910895A0E0B0E0E3E7B9
:1026E000F3E10C949914EC01CB01209719F40E94AA
:1026F0004612B8C0FE01E60FF71F9E0122503109B5
:10270000E217F30708F4ACC0D9010D911C911197A1
:1027100006171707B8F00530110508F49FC0A80187
:10272000445051094617570708F498C00250110940
:10273000061B170B019311936D937C93CF010E949D
:10274000DE128CC05B01A01AB10A4E01800E911EF0
:10275000A091A504B091A604612C712C60E070E0FA
:10276000109709F449C0A815B905C9F5ED90FC907A
:102770001197670142E0C40ED11CCA14DB0478F142
:1027800047018A189B08640142E0C40ED11C1296CE
:10279000BC9012971396AC91B5E0CB16D10440F0E3
:1027A000B282A38391828082D9018D939C9309C0C8
:1027B0000E5F1F4F0E0D1F1DF90111830083EB2DBE
:1027C000FA2F6115710531F0DB011396FC93EE933E
:1027D000129744C0F093A604E093A5043FC06D9106
:1027E0007C9111976616770608F43B01BD0112969D
:1027F0000D90BC91A02DB4CF6091A3047091A4045E
:1028000068157905E9F468167906D0F4409100015D
:10281000509101014115510541F44DB75EB76091EA
:10282000040170910501461B570BE417F507C0F42E
:10283000F093A404E093A304F901918380830EC074
:102840000E9446127C01009759F0A801BE010E9427
:102850003714CE010E94DE12C70104C0CE0102C0AF
:1028600080E090E0CDB7DEB7EEE00C94B514FB014C
:10287000DC0102C001900D9241505040D8F70895FC
:10288000FB01DC0101900D920020E1F70895FB01AE
:10289000DC014150504030F08D910190801919F4C5
:1028A0000020B9F7881B990B08954532510520F493
:1028B000423010F00C946014FB011082CB0108959B
:1028C000BB274A3031F4992322F4BDE290958195DB
:1028D0009F4F0C946C14BB27FB015527AA27880F28
:1028E000991FAA1FA41710F0A41B83955051B9F784
:1028F000A05DAA3308F0A95DA193009779F7B11103
:10290000B1931192CB010C948514DC01FC01672F6B
:1029100071917723E1F7329704C07C916D937083B6
:102920006291AE17BF07C8F308952F923F924F925E
:102930005F926F927F928F929F92AF92BF92CF924F
:10294000DF92EF92FF920F931F93CF93DF93CDB758
:10295000DEB7CA1BDB0B0FB6F894DEBF0FBECDBFD0
:1029600009942A88398848885F846E847D848C84A1
:102970009B84AA84B984C884DF80EE80FD800C81AA
:102980001B81AA81B981CE0FD11D0FB6F894DEBF8D
:0C2990000FBECDBFED010895F894FFCFFD
:10299C000000A704800000FF06FAD5030000FF002A
:1029AC00FF00452B4D20666F2057656C636F6D657E
:1029BC0020746F20746865204E4643204361726416
:1029CC002052656164657220004469646E2774202E
:1029DC0066696E6420504E35337820626F61726484
:1029EC002E204D616B6520737572652074686520AF
:1029FC00646175676874657220626F6172642069C6
:102A0C00732070726F7065726C792061747461637D
:102A1C006865642E0A2048616C74696E672E0046E6
:102A2C006F756E64206368697020504E350046697E
:102A3C00726D77617265207665722E200057616920
:102A4C0074696E6720666F7220616E2049534F3136
:102A5C0034343433412043617264202E2E2E0055C1
:102A6C006E61626C6520746F20726561642074689D
:102A7C006520726571756573746564207061676536
:102A8C000009426C6F636B2000556E61626C6520AF
:102A9C00746F207265616420626C6F636B20002D13
:102AAC002D2D2D2D2D2D2D2D2D2D2D2D2D2D2D2D4A
:102ABC002D2D2D2D2D2D2D2D2D2D2D2D2D2D2D2D3A
:102ACC002D2D2D2D2D2D2D2D2D2D2D2D2D2D2D2D2A
:102ADC002D2D2D2D2D2D2D2D2D2D2D2D2D2D2D2D1A
:102AEC002D2D2D2D2D2D2D2D2D2D2D2D0049534FD3
:102AFC0031343434334120636172642C20554944A1
:102B0C003A2000536563746F7220002028426C6F6A
:102B1C00636B73200020292061757468656E74697D
:102B2C006361746564002D2D2D5245414420434F43
:102B3C004D504C4554452D2D2D0054494D454F5568
:102B4C0054210000000000D808AB08800888089BBE
:102B5C0008AA0800000000CD0D490F4F0D680D5A52
:102B6C000DAB0D0D0A006E616E00696E66006F761E
:022B7C006600F1
:00000001FF
